{
  "_format": "hh-sol-artifact-1",
  "contractName": "DecentralizedIdentity",
  "sourceName": "contracts/DecentralizedIdentity.sol",
  "abi": [
    {
      "inputs": [
        {
          "internalType": "address",
          "name": "user",
          "type": "address"
        }
      ],
      "name": "getIdentity",
      "outputs": [
        {
          "internalType": "string",
          "name": "",
          "type": "string"
        },
        {
          "internalType": "string",
          "name": "",
          "type": "string"
        },
        {
          "internalType": "uint256",
          "name": "",
          "type": "uint256"
        },
        {
          "internalType": "string",
          "name": "",
          "type": "string"
        },
        {
          "internalType": "string",
          "name": "",
          "type": "string"
        }
      ],
      "stateMutability": "view",
      "type": "function"
    },
    {
      "inputs": [
        {
          "internalType": "address",
          "name": "",
          "type": "address"
        }
      ],
      "name": "identities",
      "outputs": [
        {
          "internalType": "string",
          "name": "name",
          "type": "string"
        },
        {
          "internalType": "string",
          "name": "role",
          "type": "string"
        },
        {
          "internalType": "uint256",
          "name": "age",
          "type": "uint256"
        },
        {
          "internalType": "string",
          "name": "email",
          "type": "string"
        },
        {
          "internalType": "string",
          "name": "phone",
          "type": "string"
        },
        {
          "internalType": "bool",
          "name": "exists",
          "type": "bool"
        }
      ],
      "stateMutability": "view",
      "type": "function"
    },
    {
      "inputs": [
        {
          "internalType": "string",
          "name": "_name",
          "type": "string"
        },
        {
          "internalType": "string",
          "name": "_role",
          "type": "string"
        },
        {
          "internalType": "uint256",
          "name": "_age",
          "type": "uint256"
        },
        {
          "internalType": "string",
          "name": "_email",
          "type": "string"
        },
        {
          "internalType": "string",
          "name": "_phone",
          "type": "string"
        }
      ],
      "name": "registerIdentity",
      "outputs": [],
      "stateMutability": "nonpayable",
      "type": "function"
    }
  ],
  "bytecode": "0x608060405234801561001057600080fd5b506110c1806100206000396000f3fe608060405234801561001057600080fd5b50600436106100415760003560e01c80632fea7b811461004657806369e8c15b1461007a578063f653b81e14610096575b600080fd5b610060600480360381019061005b91906108ac565b6100cb565b604051610071959493929190610982565b60405180910390f35b610094600480360381019061008f9190610b52565b610448565b005b6100b060048036038101906100ab91906108ac565b6105d1565b6040516100c296959493929190610c58565b60405180910390f35b60608060006060806000808773ffffffffffffffffffffffffffffffffffffffff1673ffffffffffffffffffffffffffffffffffffffff16815260200190815260200160002060050160009054906101000a900460ff16610161576040517f08c379a000000000000000000000000000000000000000000000000000000000815260040161015890610d21565b60405180910390fd5b60008060008873ffffffffffffffffffffffffffffffffffffffff1673ffffffffffffffffffffffffffffffffffffffff1681526020019081526020016000206040518060c00160405290816000820180546101bc90610d70565b80601f01602080910402602001604051908101604052809291908181526020018280546101e890610d70565b80156102355780601f1061020a57610100808354040283529160200191610235565b820191906000526020600020905b81548152906001019060200180831161021857829003601f168201915b5050505050815260200160018201805461024e90610d70565b80601f016020809104026020016040519081016040528092919081815260200182805461027a90610d70565b80156102c75780601f1061029c576101008083540402835291602001916102c7565b820191906000526020600020905b8154815290600101906020018083116102aa57829003601f168201915b50505050508152602001600282015481526020016003820180546102ea90610d70565b80601f016020809104026020016040519081016040528092919081815260200182805461031690610d70565b80156103635780601f1061033857610100808354040283529160200191610363565b820191906000526020600020905b81548152906001019060200180831161034657829003601f168201915b5050505050815260200160048201805461037c90610d70565b80601f01602080910402602001604051908101604052809291908181526020018280546103a890610d70565b80156103f55780601f106103ca576101008083540402835291602001916103f5565b820191906000526020600020905b8154815290600101906020018083116103d857829003601f168201915b505050505081526020016005820160009054906101000a900460ff161515151581525050905080600001518160200151826040015183606001518460800151955095509550955095505091939590929450565b6000803373ffffffffffffffffffffffffffffffffffffffff1673ffffffffffffffffffffffffffffffffffffffff16815260200190815260200160002060050160009054906101000a900460ff16156104d7576040517f08c379a00000000000000000000000000000000000000000000000000000000081526004016104ce90610ded565b60405180910390fd5b6040518060c00160405280868152602001858152602001848152602001838152602001828152602001600115158152506000803373ffffffffffffffffffffffffffffffffffffffff1673ffffffffffffffffffffffffffffffffffffffff168152602001908152602001600020600082015181600001908161055a9190610fb9565b5060208201518160010190816105709190610fb9565b506040820151816002015560608201518160030190816105909190610fb9565b5060808201518160040190816105a69190610fb9565b5060a08201518160050160006101000a81548160ff0219169083151502179055509050505050505050565b60006020528060005260406000206000915090508060000180546105f490610d70565b80601f016020809104026020016040519081016040528092919081815260200182805461062090610d70565b801561066d5780601f106106425761010080835404028352916020019161066d565b820191906000526020600020905b81548152906001019060200180831161065057829003601f168201915b50505050509080600101805461068290610d70565b80601f01602080910402602001604051908101604052809291908181526020018280546106ae90610d70565b80156106fb5780601f106106d0576101008083540402835291602001916106fb565b820191906000526020600020905b8154815290600101906020018083116106de57829003601f168201915b50505050509080600201549080600301805461071690610d70565b80601f016020809104026020016040519081016040528092919081815260200182805461074290610d70565b801561078f5780601f106107645761010080835404028352916020019161078f565b820191906000526020600020905b81548152906001019060200180831161077257829003601f168201915b5050505050908060040180546107a490610d70565b80601f01602080910402602001604051908101604052809291908181526020018280546107d090610d70565b801561081d5780601f106107f25761010080835404028352916020019161081d565b820191906000526020600020905b81548152906001019060200180831161080057829003601f168201915b5050505050908060050160009054906101000a900460ff16905086565b6000604051905090565b600080fd5b600080fd5b600073ffffffffffffffffffffffffffffffffffffffff82169050919050565b60006108798261084e565b9050919050565b6108898161086e565b811461089457600080fd5b50565b6000813590506108a681610880565b92915050565b6000602082840312156108c2576108c1610844565b5b60006108d084828501610897565b91505092915050565b600081519050919050565b600082825260208201905092915050565b60005b838110156109135780820151818401526020810190506108f8565b60008484015250505050565b6000601f19601f8301169050919050565b600061093b826108d9565b61094581856108e4565b93506109558185602086016108f5565b61095e8161091f565b840191505092915050565b6000819050919050565b61097c81610969565b82525050565b600060a082019050818103600083015261099c8188610930565b905081810360208301526109b08187610930565b90506109bf6040830186610973565b81810360608301526109d18185610930565b905081810360808301526109e58184610930565b90509695505050505050565b600080fd5b600080fd5b7f4e487b7100000000000000000000000000000000000000000000000000000000600052604160045260246000fd5b610a338261091f565b810181811067ffffffffffffffff82111715610a5257610a516109fb565b5b80604052505050565b6000610a6561083a565b9050610a718282610a2a565b919050565b600067ffffffffffffffff821115610a9157610a906109fb565b5b610a9a8261091f565b9050602081019050919050565b82818337600083830152505050565b6000610ac9610ac484610a76565b610a5b565b905082815260208101848484011115610ae557610ae46109f6565b5b610af0848285610aa7565b509392505050565b600082601f830112610b0d57610b0c6109f1565b5b8135610b1d848260208601610ab6565b91505092915050565b610b2f81610969565b8114610b3a57600080fd5b50565b600081359050610b4c81610b26565b92915050565b600080600080600060a08688031215610b6e57610b6d610844565b5b600086013567ffffffffffffffff811115610b8c57610b8b610849565b5b610b9888828901610af8565b955050602086013567ffffffffffffffff811115610bb957610bb8610849565b5b610bc588828901610af8565b9450506040610bd688828901610b3d565b935050606086013567ffffffffffffffff811115610bf757610bf6610849565b5b610c0388828901610af8565b925050608086013567ffffffffffffffff811115610c2457610c23610849565b5b610c3088828901610af8565b9150509295509295909350565b60008115159050919050565b610c5281610c3d565b82525050565b600060c0820190508181036000830152610c728189610930565b90508181036020830152610c868188610930565b9050610c956040830187610973565b8181036060830152610ca78186610930565b90508181036080830152610cbb8185610930565b9050610cca60a0830184610c49565b979650505050505050565b7f4964656e7469747920646f6573206e6f74206578697374000000000000000000600082015250565b6000610d0b6017836108e4565b9150610d1682610cd5565b602082019050919050565b60006020820190508181036000830152610d3a81610cfe565b9050919050565b7f4e487b7100000000000000000000000000000000000000000000000000000000600052602260045260246000fd5b60006002820490506001821680610d8857607f821691505b602082108103610d9b57610d9a610d41565b5b50919050565b7f4964656e7469747920616c726561647920657869737473000000000000000000600082015250565b6000610dd76017836108e4565b9150610de282610da1565b602082019050919050565b60006020820190508181036000830152610e0681610dca565b9050919050565b60008190508160005260206000209050919050565b60006020601f8301049050919050565b600082821b905092915050565b600060088302610e6f7fffffffffffffffffffffffffffffffffffffffffffffffffffffffffffffffff82610e32565b610e798683610e32565b95508019841693508086168417925050509392505050565b6000819050919050565b6000610eb6610eb1610eac84610969565b610e91565b610969565b9050919050565b6000819050919050565b610ed083610e9b565b610ee4610edc82610ebd565b848454610e3f565b825550505050565b600090565b610ef9610eec565b610f04818484610ec7565b505050565b5b81811015610f2857610f1d600082610ef1565b600181019050610f0a565b5050565b601f821115610f6d57610f3e81610e0d565b610f4784610e22565b81016020851015610f56578190505b610f6a610f6285610e22565b830182610f09565b50505b505050565b600082821c905092915050565b6000610f9060001984600802610f72565b1980831691505092915050565b6000610fa98383610f7f565b9150826002028217905092915050565b610fc2826108d9565b67ffffffffffffffff811115610fdb57610fda6109fb565b5b610fe58254610d70565b610ff0828285610f2c565b600060209050601f8311600181146110235760008415611011578287015190505b61101b8582610f9d565b865550611083565b601f19841661103186610e0d565b60005b8281101561105957848901518255600182019150602085019450602081019050611034565b868310156110765784890151611072601f891682610f7f565b8355505b6001600288020188555050505b50505050505056fea26469706673582212209c1c40ae388cdde9eda202c45aeddf3b87df1aeb8851df9cb22d70c2c61de7dc64736f6c63430008140033",
  "linkReferences": {},
  "deployedLinkReferences": {}
}